{
  "_format": "hh-sol-artifact-1",
  "contractName": "MyERC4907",
  "sourceName": "contracts/MyERC4907.sol",
  "abi": [
    {
      "inputs": [
        {
          "internalType": "string",
          "name": "name",
          "type": "string"
        },
        {
          "internalType": "string",
          "name": "symbol",
          "type": "string"
        }
      ],
      "stateMutability": "nonpayable",
      "type": "constructor"
    },
    {
      "inputs": [
        {
          "internalType": "address",
          "name": "sender",
          "type": "address"
        },
        {
          "internalType": "uint256",
          "name": "tokenId",
          "type": "uint256"
        },
        {
          "internalType": "address",
          "name": "owner",
          "type": "address"
        }
      ],
      "name": "ERC721IncorrectOwner",
      "type": "error"
    },
    {
      "inputs": [
        {
          "internalType": "address",
          "name": "operator",
          "type": "address"
        },
        {
          "internalType": "uint256",
          "name": "tokenId",
          "type": "uint256"
        }
      ],
      "name": "ERC721InsufficientApproval",
      "type": "error"
    },
    {
      "inputs": [
        {
          "internalType": "address",
          "name": "approver",
          "type": "address"
        }
      ],
      "name": "ERC721InvalidApprover",
      "type": "error"
    },
    {
      "inputs": [
        {
          "internalType": "address",
          "name": "operator",
          "type": "address"
        }
      ],
      "name": "ERC721InvalidOperator",
      "type": "error"
    },
    {
      "inputs": [
        {
          "internalType": "address",
          "name": "owner",
          "type": "address"
        }
      ],
      "name": "ERC721InvalidOwner",
      "type": "error"
    },
    {
      "inputs": [
        {
          "internalType": "address",
          "name": "receiver",
          "type": "address"
        }
      ],
      "name": "ERC721InvalidReceiver",
      "type": "error"
    },
    {
      "inputs": [
        {
          "internalType": "address",
          "name": "sender",
          "type": "address"
        }
      ],
      "name": "ERC721InvalidSender",
      "type": "error"
    },
    {
      "inputs": [
        {
          "internalType": "uint256",
          "name": "tokenId",
          "type": "uint256"
        }
      ],
      "name": "ERC721NonexistentToken",
      "type": "error"
    },
    {
      "anonymous": false,
      "inputs": [
        {
          "indexed": true,
          "internalType": "address",
          "name": "owner",
          "type": "address"
        },
        {
          "indexed": true,
          "internalType": "address",
          "name": "approved",
          "type": "address"
        },
        {
          "indexed": true,
          "internalType": "uint256",
          "name": "tokenId",
          "type": "uint256"
        }
      ],
      "name": "Approval",
      "type": "event"
    },
    {
      "anonymous": false,
      "inputs": [
        {
          "indexed": true,
          "internalType": "address",
          "name": "owner",
          "type": "address"
        },
        {
          "indexed": true,
          "internalType": "address",
          "name": "operator",
          "type": "address"
        },
        {
          "indexed": false,
          "internalType": "bool",
          "name": "approved",
          "type": "bool"
        }
      ],
      "name": "ApprovalForAll",
      "type": "event"
    },
    {
      "anonymous": false,
      "inputs": [
        {
          "indexed": false,
          "internalType": "uint256",
          "name": "blockTimestamp",
          "type": "uint256"
        }
      ],
      "name": "BlockTimestamp",
      "type": "event"
    },
    {
      "anonymous": false,
      "inputs": [
        {
          "indexed": false,
          "internalType": "uint256",
          "name": "carTokenId",
          "type": "uint256"
        },
        {
          "indexed": false,
          "internalType": "address",
          "name": "borrower",
          "type": "address"
        },
        {
          "indexed": false,
          "internalType": "uint256",
          "name": "startTime",
          "type": "uint256"
        },
        {
          "indexed": false,
          "internalType": "uint256",
          "name": "duration",
          "type": "uint256"
        }
      ],
      "name": "CarBorrowed",
      "type": "event"
    },
    {
      "anonymous": false,
      "inputs": [
        {
          "indexed": true,
          "internalType": "address",
          "name": "from",
          "type": "address"
        },
        {
          "indexed": true,
          "internalType": "address",
          "name": "to",
          "type": "address"
        },
        {
          "indexed": true,
          "internalType": "uint256",
          "name": "tokenId",
          "type": "uint256"
        }
      ],
      "name": "Transfer",
      "type": "event"
    },
    {
      "anonymous": false,
      "inputs": [
        {
          "indexed": true,
          "internalType": "uint256",
          "name": "tokenId",
          "type": "uint256"
        },
        {
          "indexed": true,
          "internalType": "address",
          "name": "user",
          "type": "address"
        },
        {
          "indexed": false,
          "internalType": "uint64",
          "name": "expires",
          "type": "uint64"
        }
      ],
      "name": "UpdateUser",
      "type": "event"
    },
    {
      "inputs": [
        {
          "internalType": "uint256",
          "name": "TokenId",
          "type": "uint256"
        },
        {
          "internalType": "uint256",
          "name": "TimeNow",
          "type": "uint256"
        }
      ],
      "name": "MyUserOf",
      "outputs": [
        {
          "internalType": "address",
          "name": "",
          "type": "address"
        }
      ],
      "stateMutability": "view",
      "type": "function"
    },
    {
      "inputs": [
        {
          "internalType": "uint256",
          "name": "tokenId",
          "type": "uint256"
        },
        {
          "internalType": "address",
          "name": "user",
          "type": "address"
        },
        {
          "internalType": "uint64",
          "name": "expires",
          "type": "uint64"
        },
        {
          "internalType": "uint256",
          "name": "TimeNow",
          "type": "uint256"
        }
      ],
      "name": "RentCar",
      "outputs": [],
      "stateMutability": "nonpayable",
      "type": "function"
    },
    {
      "inputs": [],
      "name": "airdrop",
      "outputs": [],
      "stateMutability": "nonpayable",
      "type": "function"
    },
    {
      "inputs": [
        {
          "internalType": "address",
          "name": "to",
          "type": "address"
        },
        {
          "internalType": "uint256",
          "name": "tokenId",
          "type": "uint256"
        }
      ],
      "name": "approve",
      "outputs": [],
      "stateMutability": "nonpayable",
      "type": "function"
    },
    {
      "inputs": [
        {
          "internalType": "address",
          "name": "owner",
          "type": "address"
        }
      ],
      "name": "balanceOf",
      "outputs": [
        {
          "internalType": "uint256",
          "name": "",
          "type": "uint256"
        }
      ],
      "stateMutability": "view",
      "type": "function"
    },
    {
      "inputs": [
        {
          "internalType": "uint256",
          "name": "tokenId",
          "type": "uint256"
        }
      ],
      "name": "getApproved",
      "outputs": [
        {
          "internalType": "address",
          "name": "",
          "type": "address"
        }
      ],
      "stateMutability": "view",
      "type": "function"
    },
    {
      "inputs": [
        {
          "internalType": "address",
          "name": "owner",
          "type": "address"
        }
      ],
      "name": "getTokensByOwner",
      "outputs": [
        {
          "internalType": "uint256[]",
          "name": "",
          "type": "uint256[]"
        }
      ],
      "stateMutability": "view",
      "type": "function"
    },
    {
      "inputs": [
        {
          "internalType": "address",
          "name": "user",
          "type": "address"
        }
      ],
      "name": "getTokensByUser",
      "outputs": [
        {
          "components": [
            {
              "internalType": "uint256",
              "name": "tokenId",
              "type": "uint256"
            },
            {
              "internalType": "uint64",
              "name": "expire",
              "type": "uint64"
            },
            {
              "internalType": "uint256",
              "name": "blockTimestamp",
              "type": "uint256"
            }
          ],
          "internalType": "struct MyERC4907.Rent[]",
          "name": "",
          "type": "tuple[]"
        }
      ],
      "stateMutability": "nonpayable",
      "type": "function"
    },
    {
      "inputs": [],
      "name": "getUnusedTokenIds",
      "outputs": [
        {
          "internalType": "uint256[]",
          "name": "",
          "type": "uint256[]"
        }
      ],
      "stateMutability": "view",
      "type": "function"
    },
    {
      "inputs": [
        {
          "internalType": "address",
          "name": "owner",
          "type": "address"
        },
        {
          "internalType": "address",
          "name": "operator",
          "type": "address"
        }
      ],
      "name": "isApprovedForAll",
      "outputs": [
        {
          "internalType": "bool",
          "name": "",
          "type": "bool"
        }
      ],
      "stateMutability": "view",
      "type": "function"
    },
    {
      "inputs": [],
      "name": "name",
      "outputs": [
        {
          "internalType": "string",
          "name": "",
          "type": "string"
        }
      ],
      "stateMutability": "view",
      "type": "function"
    },
    {
      "inputs": [
        {
          "internalType": "uint256",
          "name": "tokenId",
          "type": "uint256"
        }
      ],
      "name": "ownerOf",
      "outputs": [
        {
          "internalType": "address",
          "name": "",
          "type": "address"
        }
      ],
      "stateMutability": "view",
      "type": "function"
    },
    {
      "inputs": [
        {
          "internalType": "address",
          "name": "from",
          "type": "address"
        },
        {
          "internalType": "address",
          "name": "to",
          "type": "address"
        },
        {
          "internalType": "uint256",
          "name": "tokenId",
          "type": "uint256"
        }
      ],
      "name": "safeTransferFrom",
      "outputs": [],
      "stateMutability": "nonpayable",
      "type": "function"
    },
    {
      "inputs": [
        {
          "internalType": "address",
          "name": "from",
          "type": "address"
        },
        {
          "internalType": "address",
          "name": "to",
          "type": "address"
        },
        {
          "internalType": "uint256",
          "name": "tokenId",
          "type": "uint256"
        },
        {
          "internalType": "bytes",
          "name": "data",
          "type": "bytes"
        }
      ],
      "name": "safeTransferFrom",
      "outputs": [],
      "stateMutability": "nonpayable",
      "type": "function"
    },
    {
      "inputs": [
        {
          "internalType": "address",
          "name": "operator",
          "type": "address"
        },
        {
          "internalType": "bool",
          "name": "approved",
          "type": "bool"
        }
      ],
      "name": "setApprovalForAll",
      "outputs": [],
      "stateMutability": "nonpayable",
      "type": "function"
    },
    {
      "inputs": [
        {
          "internalType": "uint256",
          "name": "tokenId",
          "type": "uint256"
        },
        {
          "internalType": "address",
          "name": "user",
          "type": "address"
        },
        {
          "internalType": "uint64",
          "name": "expires",
          "type": "uint64"
        }
      ],
      "name": "setUser",
      "outputs": [],
      "stateMutability": "nonpayable",
      "type": "function"
    },
    {
      "inputs": [
        {
          "internalType": "bytes4",
          "name": "interfaceId",
          "type": "bytes4"
        }
      ],
      "name": "supportsInterface",
      "outputs": [
        {
          "internalType": "bool",
          "name": "",
          "type": "bool"
        }
      ],
      "stateMutability": "view",
      "type": "function"
    },
    {
      "inputs": [],
      "name": "symbol",
      "outputs": [
        {
          "internalType": "string",
          "name": "",
          "type": "string"
        }
      ],
      "stateMutability": "view",
      "type": "function"
    },
    {
      "inputs": [
        {
          "internalType": "uint256",
          "name": "tokenId",
          "type": "uint256"
        }
      ],
      "name": "tokenURI",
      "outputs": [
        {
          "internalType": "string",
          "name": "",
          "type": "string"
        }
      ],
      "stateMutability": "view",
      "type": "function"
    },
    {
      "inputs": [
        {
          "internalType": "address",
          "name": "from",
          "type": "address"
        },
        {
          "internalType": "address",
          "name": "to",
          "type": "address"
        },
        {
          "internalType": "uint256",
          "name": "tokenId",
          "type": "uint256"
        }
      ],
      "name": "transferFrom",
      "outputs": [],
      "stateMutability": "nonpayable",
      "type": "function"
    },
    {
      "inputs": [
        {
          "internalType": "uint256",
          "name": "tokenId",
          "type": "uint256"
        }
      ],
      "name": "userExpires",
      "outputs": [
        {
          "internalType": "uint256",
          "name": "",
          "type": "uint256"
        }
      ],
      "stateMutability": "view",
      "type": "function"
    },
    {
      "inputs": [
        {
          "internalType": "uint256",
          "name": "tokenId",
          "type": "uint256"
        }
      ],
      "name": "userOf",
      "outputs": [
        {
          "internalType": "address",
          "name": "",
          "type": "address"
        }
      ],
      "stateMutability": "view",
      "type": "function"
    }
  ],
  "bytecode": "0x60806040523480156200001157600080fd5b50604051620034eb380380620034eb8339818101604052810190620000379190620001fe565b8181818181600090816200004c9190620004ce565b5080600190816200005e9190620004ce565b50505050505050620005b5565b6000604051905090565b600080fd5b600080fd5b600080fd5b600080fd5b6000601f19601f8301169050919050565b7f4e487b7100000000000000000000000000000000000000000000000000000000600052604160045260246000fd5b620000d48262000089565b810181811067ffffffffffffffff82111715620000f657620000f56200009a565b5b80604052505050565b60006200010b6200006b565b9050620001198282620000c9565b919050565b600067ffffffffffffffff8211156200013c576200013b6200009a565b5b620001478262000089565b9050602081019050919050565b60005b838110156200017457808201518184015260208101905062000157565b60008484015250505050565b60006200019762000191846200011e565b620000ff565b905082815260208101848484011115620001b657620001b562000084565b5b620001c384828562000154565b509392505050565b600082601f830112620001e357620001e26200007f565b5b8151620001f584826020860162000180565b91505092915050565b6000806040838503121562000218576200021762000075565b5b600083015167ffffffffffffffff8111156200023957620002386200007a565b5b6200024785828601620001cb565b925050602083015167ffffffffffffffff8111156200026b576200026a6200007a565b5b6200027985828601620001cb565b9150509250929050565b600081519050919050565b7f4e487b7100000000000000000000000000000000000000000000000000000000600052602260045260246000fd5b60006002820490506001821680620002d657607f821691505b602082108103620002ec57620002eb6200028e565b5b50919050565b60008190508160005260206000209050919050565b60006020601f8301049050919050565b600082821b905092915050565b600060088302620003567fffffffffffffffffffffffffffffffffffffffffffffffffffffffffffffffff8262000317565b62000362868362000317565b95508019841693508086168417925050509392505050565b6000819050919050565b6000819050919050565b6000620003af620003a9620003a3846200037a565b62000384565b6200037a565b9050919050565b6000819050919050565b620003cb836200038e565b620003e3620003da82620003b6565b84845462000324565b825550505050565b600090565b620003fa620003eb565b62000407818484620003c0565b505050565b5b818110156200042f5762000423600082620003f0565b6001810190506200040d565b5050565b601f8211156200047e576200044881620002f2565b620004538462000307565b8101602085101562000463578190505b6200047b620004728562000307565b8301826200040c565b50505b505050565b600082821c905092915050565b6000620004a36000198460080262000483565b1980831691505092915050565b6000620004be838362000490565b9150826002028217905092915050565b620004d98262000283565b67ffffffffffffffff811115620004f557620004f46200009a565b5b620005018254620002bd565b6200050e82828562000433565b600060209050601f83116001811462000546576000841562000531578287015190505b6200053d8582620004b0565b865550620005ad565b601f1984166200055686620002f2565b60005b82811015620005805784890151825560018201915060208501945060208101905062000559565b86831015620005a057848901516200059c601f89168262000490565b8355505b6001600288020188555050505b505050505050565b612f2680620005c56000396000f3fe608060405234801561001057600080fd5b50600436106101425760003560e01c806371ff52d0116100b8578063a22cb4651161007c578063a22cb4651461039b578063b88d4fde146103b7578063c2f1f14a146103d3578063c87b56dd14610403578063e030565e14610433578063e985e9c51461044f57610142565b806371ff52d0146102d157806380370075146102ed57806386bf4c541461031d5780638fc88c481461034d57806395d89b411461037d57610142565b80633884d6351161010a5780633884d635146101fd57806340398d671461020757806342842e0e146102375780636352211e14610253578063678e0d0e1461028357806370a08231146102a157610142565b806301ffc9a71461014757806306fdde0314610177578063081812fc14610195578063095ea7b3146101c557806323b872dd146101e1575b600080fd5b610161600480360381019061015c91906121a0565b61047f565b60405161016e91906121e8565b60405180910390f35b61017f6104f9565b60405161018c9190612293565b60405180910390f35b6101af60048036038101906101aa91906122eb565b61058b565b6040516101bc9190612359565b60405180910390f35b6101df60048036038101906101da91906123a0565b6105a7565b005b6101fb60048036038101906101f691906123e0565b6105bd565b005b6102056106bf565b005b610221600480360381019061021c9190612433565b6106e7565b60405161022e919061251e565b60405180910390f35b610251600480360381019061024c91906123e0565b6107d4565b005b61026d600480360381019061026891906122eb565b6107f4565b60405161027a9190612359565b60405180910390f35b61028b610806565b604051610298919061251e565b60405180910390f35b6102bb60048036038101906102b69190612433565b610993565b6040516102c8919061254f565b60405180910390f35b6102eb60048036038101906102e691906125aa565b610a4d565b005b61030760048036038101906103029190612433565b610cc8565b6040516103149190612711565b60405180910390f35b61033760048036038101906103329190612733565b610f00565b6040516103449190612359565b60405180910390f35b610367600480360381019061036291906122eb565b610f87565b604051610374919061254f565b60405180910390f35b610385610fc5565b6040516103929190612293565b60405180910390f35b6103b560048036038101906103b0919061279f565b611057565b005b6103d160048036038101906103cc9190612914565b61106d565b005b6103ed60048036038101906103e891906122eb565b61108a565b6040516103fa9190612359565b60405180910390f35b61041d600480360381019061041891906122eb565b61110f565b60405161042a9190612293565b60405180910390f35b61044d60048036038101906104489190612997565b611178565b005b610469600480360381019061046491906129ea565b611252565b60405161047691906121e8565b60405180910390f35b60007fad092b5c000000000000000000000000000000000000000000000000000000007bffffffffffffffffffffffffffffffffffffffffffffffffffffffff1916827bffffffffffffffffffffffffffffffffffffffffffffffffffffffff191614806104f257506104f1826112e6565b5b9050919050565b60606000805461050890612a59565b80601f016020809104026020016040519081016040528092919081815260200182805461053490612a59565b80156105815780601f1061055657610100808354040283529160200191610581565b820191906000526020600020905b81548152906001019060200180831161056457829003601f168201915b5050505050905090565b6000610596826113c8565b506105a082611450565b9050919050565b6105b982826105b461148d565b611495565b5050565b600073ffffffffffffffffffffffffffffffffffffffff168273ffffffffffffffffffffffffffffffffffffffff160361062f5760006040517f64a0ae920000000000000000000000000000000000000000000000000000000081526004016106269190612359565b60405180910390fd5b6000610643838361063e61148d565b6114a7565b90508373ffffffffffffffffffffffffffffffffffffffff168173ffffffffffffffffffffffffffffffffffffffff16146106b9578382826040517f64283d7b0000000000000000000000000000000000000000000000000000000081526004016106b093929190612a8a565b60405180910390fd5b50505050565b6000600760008154809291906106d490612af0565b9190505590506106e433826116c1565b50565b606060006106f483610993565b67ffffffffffffffff81111561070d5761070c6127e9565b5b60405190808252806020026020018201604052801561073b5781602001602082028036833780820191505090505b5090506000805b6007548110156107c9578473ffffffffffffffffffffffffffffffffffffffff1661076c826107f4565b73ffffffffffffffffffffffffffffffffffffffff16036107b6578083838151811061079b5761079a612b38565b5b60200260200101818152505081806107b290612af0565b9250505b80806107c190612af0565b915050610742565b508192505050919050565b6107ef8383836040518060200160405280600081525061106d565b505050565b60006107ff826113c8565b9050919050565b6060600060075467ffffffffffffffff811115610826576108256127e9565b5b6040519080825280602002602001820160405280156108545781602001602082028036833780820191505090505b5090506000805b6007548110156108e357600073ffffffffffffffffffffffffffffffffffffffff166108868261108a565b73ffffffffffffffffffffffffffffffffffffffff16036108d057808383815181106108b5576108b4612b38565b5b60200260200101818152505081806108cc90612af0565b9250505b80806108db90612af0565b91505061085b565b5060008167ffffffffffffffff811115610900576108ff6127e9565b5b60405190808252806020026020018201604052801561092e5781602001602082028036833780820191505090505b50905060005b828110156109895783818151811061094f5761094e612b38565b5b602002602001015182828151811061096a57610969612b38565b5b602002602001018181525050808061098190612af0565b915050610934565b5080935050505090565b60008073ffffffffffffffffffffffffffffffffffffffff168273ffffffffffffffffffffffffffffffffffffffff1603610a065760006040517f89c62b640000000000000000000000000000000000000000000000000000000081526004016109fd9190612359565b60405180910390fd5b600360008373ffffffffffffffffffffffffffffffffffffffff1673ffffffffffffffffffffffffffffffffffffffff168152602001908152602001600020549050919050565b806006600086815260200190815260200160002060000160149054906101000a900467ffffffffffffffff1667ffffffffffffffff16108015610ac45750610a94846107f4565b73ffffffffffffffffffffffffffffffffffffffff163373ffffffffffffffffffffffffffffffffffffffff1614155b15610b1657610ad4848484611178565b7f8879d78706834dc00d82232992f71250fab6a1f70b08260968253950083d88cd84844285604051610b099493929190612ba2565b60405180910390a1610cc2565b600073ffffffffffffffffffffffffffffffffffffffff16610b378561108a565b73ffffffffffffffffffffffffffffffffffffffff1614158015610b8e57503373ffffffffffffffffffffffffffffffffffffffff16610b768561108a565b73ffffffffffffffffffffffffffffffffffffffff16145b15610bce576040517f08c379a0000000000000000000000000000000000000000000000000000000008152600401610bc590612c33565b60405180910390fd5b600073ffffffffffffffffffffffffffffffffffffffff16610bef8561108a565b73ffffffffffffffffffffffffffffffffffffffff1614158015610c4757503373ffffffffffffffffffffffffffffffffffffffff16610c2e8561108a565b73ffffffffffffffffffffffffffffffffffffffff1614155b15610c87576040517f08c379a0000000000000000000000000000000000000000000000000000000008152600401610c7e90612c9f565b60405180910390fd5b6040517f08c379a0000000000000000000000000000000000000000000000000000000008152600401610cb990612d0b565b60405180910390fd5b50505050565b6060600060075467ffffffffffffffff811115610ce857610ce76127e9565b5b604051908082528060200260200182016040528015610d165781602001602082028036833780820191505090505b50905060007f5510a19759f6dbf833c672e639456796c1c23fa35ad11c2f8f569a9f2499230942604051610d4a919061254f565b60405180910390a160005b600754811015610ddc578473ffffffffffffffffffffffffffffffffffffffff16610d7f8261108a565b73ffffffffffffffffffffffffffffffffffffffff1603610dc95780838381518110610dae57610dad612b38565b5b6020026020010181815250508180610dc590612af0565b9250505b8080610dd490612af0565b915050610d55565b5060008167ffffffffffffffff811115610df957610df86127e9565b5b604051908082528060200260200182016040528015610e3257816020015b610e1f612109565b815260200190600190039081610e175790505b50905060005b82811015610ef4576040518060600160405280858381518110610e5e57610e5d612b38565b5b6020026020010151815260200160066000878581518110610e8257610e81612b38565b5b6020026020010151815260200190815260200160002060000160149054906101000a900467ffffffffffffffff1667ffffffffffffffff16815260200142815250828281518110610ed657610ed5612b38565b5b60200260200101819052508080610eec90612af0565b915050610e38565b50809350505050919050565b6000816006600085815260200190815260200160002060000160149054906101000a900467ffffffffffffffff1667ffffffffffffffff161115610f7c576006600084815260200190815260200160002060000160009054906101000a900473ffffffffffffffffffffffffffffffffffffffff169050610f81565b600090505b92915050565b60006006600083815260200190815260200160002060000160149054906101000a900467ffffffffffffffff1667ffffffffffffffff169050919050565b606060018054610fd490612a59565b80601f016020809104026020016040519081016040528092919081815260200182805461100090612a59565b801561104d5780601f106110225761010080835404028352916020019161104d565b820191906000526020600020905b81548152906001019060200180831161103057829003601f168201915b5050505050905090565b61106961106261148d565b83836117ba565b5050565b6110788484846105bd565b61108484848484611929565b50505050565b6000426006600084815260200190815260200160002060000160149054906101000a900467ffffffffffffffff1667ffffffffffffffff1610611105576006600083815260200190815260200160002060000160009054906101000a900473ffffffffffffffffffffffffffffffffffffffff16905061110a565b600090505b919050565b606061111a826113c8565b506000611125611ae0565b905060008151116111455760405180602001604052806000815250611170565b8061114f84611af7565b604051602001611160929190612d67565b6040516020818303038152906040525b915050919050565b6000600660008581526020019081526020016000209050828160000160006101000a81548173ffffffffffffffffffffffffffffffffffffffff021916908373ffffffffffffffffffffffffffffffffffffffff160217905550818160000160146101000a81548167ffffffffffffffff021916908367ffffffffffffffff1602179055508273ffffffffffffffffffffffffffffffffffffffff16847f4e06b4e7000e659094299b3533b47b6aa8ad048e95e872d23d1f4ee55af89cfe846040516112449190612d9a565b60405180910390a350505050565b6000600560008473ffffffffffffffffffffffffffffffffffffffff1673ffffffffffffffffffffffffffffffffffffffff16815260200190815260200160002060008373ffffffffffffffffffffffffffffffffffffffff1673ffffffffffffffffffffffffffffffffffffffff16815260200190815260200160002060009054906101000a900460ff16905092915050565b60007f80ac58cd000000000000000000000000000000000000000000000000000000007bffffffffffffffffffffffffffffffffffffffffffffffffffffffff1916827bffffffffffffffffffffffffffffffffffffffffffffffffffffffff191614806113b157507f5b5e139f000000000000000000000000000000000000000000000000000000007bffffffffffffffffffffffffffffffffffffffffffffffffffffffff1916827bffffffffffffffffffffffffffffffffffffffffffffffffffffffff1916145b806113c157506113c082611bc5565b5b9050919050565b6000806113d483611c2f565b9050600073ffffffffffffffffffffffffffffffffffffffff168173ffffffffffffffffffffffffffffffffffffffff160361144757826040517f7e27328900000000000000000000000000000000000000000000000000000000815260040161143e919061254f565b60405180910390fd5b80915050919050565b60006004600083815260200190815260200160002060009054906101000a900473ffffffffffffffffffffffffffffffffffffffff169050919050565b600033905090565b6114a28383836001611c6c565b505050565b6000806114b384611c2f565b9050600073ffffffffffffffffffffffffffffffffffffffff168373ffffffffffffffffffffffffffffffffffffffff16146114f5576114f4818486611e31565b5b600073ffffffffffffffffffffffffffffffffffffffff168173ffffffffffffffffffffffffffffffffffffffff161461158657611537600085600080611c6c565b6001600360008373ffffffffffffffffffffffffffffffffffffffff1673ffffffffffffffffffffffffffffffffffffffff168152602001908152602001600020600082825403925050819055505b600073ffffffffffffffffffffffffffffffffffffffff168573ffffffffffffffffffffffffffffffffffffffff1614611609576001600360008773ffffffffffffffffffffffffffffffffffffffff1673ffffffffffffffffffffffffffffffffffffffff168152602001908152602001600020600082825401925050819055505b846002600086815260200190815260200160002060006101000a81548173ffffffffffffffffffffffffffffffffffffffff021916908373ffffffffffffffffffffffffffffffffffffffff160217905550838573ffffffffffffffffffffffffffffffffffffffff168273ffffffffffffffffffffffffffffffffffffffff167fddf252ad1be2c89b69c2b068fc378daa952ba7f163c4a11628f55a4df523b3ef60405160405180910390a4809150509392505050565b600073ffffffffffffffffffffffffffffffffffffffff168273ffffffffffffffffffffffffffffffffffffffff16036117335760006040517f64a0ae9200000000000000000000000000000000000000000000000000000000815260040161172a9190612359565b60405180910390fd5b6000611741838360006114a7565b9050600073ffffffffffffffffffffffffffffffffffffffff168173ffffffffffffffffffffffffffffffffffffffff16146117b55760006040517f73c6ac6e0000000000000000000000000000000000000000000000000000000081526004016117ac9190612359565b60405180910390fd5b505050565b600073ffffffffffffffffffffffffffffffffffffffff168273ffffffffffffffffffffffffffffffffffffffff160361182b57816040517f5b08ba180000000000000000000000000000000000000000000000000000000081526004016118229190612359565b60405180910390fd5b80600560008573ffffffffffffffffffffffffffffffffffffffff1673ffffffffffffffffffffffffffffffffffffffff16815260200190815260200160002060008473ffffffffffffffffffffffffffffffffffffffff1673ffffffffffffffffffffffffffffffffffffffff16815260200190815260200160002060006101000a81548160ff0219169083151502179055508173ffffffffffffffffffffffffffffffffffffffff168373ffffffffffffffffffffffffffffffffffffffff167f17307eab39ab6107e8899845ad3d59bd9653f200f220920489ca2b5937696c318360405161191c91906121e8565b60405180910390a3505050565b60008373ffffffffffffffffffffffffffffffffffffffff163b1115611ada578273ffffffffffffffffffffffffffffffffffffffff1663150b7a0261196d61148d565b8685856040518563ffffffff1660e01b815260040161198f9493929190612e0a565b6020604051808303816000875af19250505080156119cb57506040513d601f19601f820116820180604052508101906119c89190612e6b565b60015b611a4f573d80600081146119fb576040519150601f19603f3d011682016040523d82523d6000602084013e611a00565b606091505b506000815103611a4757836040517f64a0ae92000000000000000000000000000000000000000000000000000000008152600401611a3e9190612359565b60405180910390fd5b805181602001fd5b63150b7a0260e01b7bffffffffffffffffffffffffffffffffffffffffffffffffffffffff1916817bffffffffffffffffffffffffffffffffffffffffffffffffffffffff191614611ad857836040517f64a0ae92000000000000000000000000000000000000000000000000000000008152600401611acf9190612359565b60405180910390fd5b505b50505050565b606060405180602001604052806000815250905090565b606060006001611b0684611ef5565b01905060008167ffffffffffffffff811115611b2557611b246127e9565b5b6040519080825280601f01601f191660200182016040528015611b575781602001600182028036833780820191505090505b509050600082602001820190505b600115611bba578080600190039150507f3031323334353637383961626364656600000000000000000000000000000000600a86061a8153600a8581611bae57611bad612e98565b5b04945060008503611b65575b819350505050919050565b60007f01ffc9a7000000000000000000000000000000000000000000000000000000007bffffffffffffffffffffffffffffffffffffffffffffffffffffffff1916827bffffffffffffffffffffffffffffffffffffffffffffffffffffffff1916149050919050565b60006002600083815260200190815260200160002060009054906101000a900473ffffffffffffffffffffffffffffffffffffffff169050919050565b8080611ca55750600073ffffffffffffffffffffffffffffffffffffffff168273ffffffffffffffffffffffffffffffffffffffff1614155b15611dd9576000611cb5846113c8565b9050600073ffffffffffffffffffffffffffffffffffffffff168373ffffffffffffffffffffffffffffffffffffffff1614158015611d2057508273ffffffffffffffffffffffffffffffffffffffff168173ffffffffffffffffffffffffffffffffffffffff1614155b8015611d335750611d318184611252565b155b15611d7557826040517fa9fbf51f000000000000000000000000000000000000000000000000000000008152600401611d6c9190612359565b60405180910390fd5b8115611dd757838573ffffffffffffffffffffffffffffffffffffffff168273ffffffffffffffffffffffffffffffffffffffff167f8c5be1e5ebec7d5bd14f71427d1e84f3dd0314c0f7b2291e5b200ac8c7c3b92560405160405180910390a45b505b836004600085815260200190815260200160002060006101000a81548173ffffffffffffffffffffffffffffffffffffffff021916908373ffffffffffffffffffffffffffffffffffffffff16021790555050505050565b611e3c838383612048565b611ef057600073ffffffffffffffffffffffffffffffffffffffff168373ffffffffffffffffffffffffffffffffffffffff1603611eb157806040517f7e273289000000000000000000000000000000000000000000000000000000008152600401611ea8919061254f565b60405180910390fd5b81816040517f177e802f000000000000000000000000000000000000000000000000000000008152600401611ee7929190612ec7565b60405180910390fd5b505050565b600080600090507a184f03e93ff9f4daa797ed6e38ed64bf6a1f0100000000000000008310611f53577a184f03e93ff9f4daa797ed6e38ed64bf6a1f0100000000000000008381611f4957611f48612e98565b5b0492506040810190505b6d04ee2d6d415b85acef81000000008310611f90576d04ee2d6d415b85acef81000000008381611f8657611f85612e98565b5b0492506020810190505b662386f26fc100008310611fbf57662386f26fc100008381611fb557611fb4612e98565b5b0492506010810190505b6305f5e1008310611fe8576305f5e1008381611fde57611fdd612e98565b5b0492506008810190505b612710831061200d57612710838161200357612002612e98565b5b0492506004810190505b60648310612030576064838161202657612025612e98565b5b0492506002810190505b600a831061203f576001810190505b80915050919050565b60008073ffffffffffffffffffffffffffffffffffffffff168373ffffffffffffffffffffffffffffffffffffffff161415801561210057508273ffffffffffffffffffffffffffffffffffffffff168473ffffffffffffffffffffffffffffffffffffffff1614806120c157506120c08484611252565b5b806120ff57508273ffffffffffffffffffffffffffffffffffffffff166120e783611450565b73ffffffffffffffffffffffffffffffffffffffff16145b5b90509392505050565b604051806060016040528060008152602001600067ffffffffffffffff168152602001600081525090565b6000604051905090565b600080fd5b600080fd5b60007fffffffff0000000000000000000000000000000000000000000000000000000082169050919050565b61217d81612148565b811461218857600080fd5b50565b60008135905061219a81612174565b92915050565b6000602082840312156121b6576121b561213e565b5b60006121c48482850161218b565b91505092915050565b60008115159050919050565b6121e2816121cd565b82525050565b60006020820190506121fd60008301846121d9565b92915050565b600081519050919050565b600082825260208201905092915050565b60005b8381101561223d578082015181840152602081019050612222565b60008484015250505050565b6000601f19601f8301169050919050565b600061226582612203565b61226f818561220e565b935061227f81856020860161221f565b61228881612249565b840191505092915050565b600060208201905081810360008301526122ad818461225a565b905092915050565b6000819050919050565b6122c8816122b5565b81146122d357600080fd5b50565b6000813590506122e5816122bf565b92915050565b6000602082840312156123015761230061213e565b5b600061230f848285016122d6565b91505092915050565b600073ffffffffffffffffffffffffffffffffffffffff82169050919050565b600061234382612318565b9050919050565b61235381612338565b82525050565b600060208201905061236e600083018461234a565b92915050565b61237d81612338565b811461238857600080fd5b50565b60008135905061239a81612374565b92915050565b600080604083850312156123b7576123b661213e565b5b60006123c58582860161238b565b92505060206123d6858286016122d6565b9150509250929050565b6000806000606084860312156123f9576123f861213e565b5b60006124078682870161238b565b93505060206124188682870161238b565b9250506040612429868287016122d6565b9150509250925092565b6000602082840312156124495761244861213e565b5b60006124578482850161238b565b91505092915050565b600081519050919050565b600082825260208201905092915050565b6000819050602082019050919050565b612495816122b5565b82525050565b60006124a7838361248c565b60208301905092915050565b6000602082019050919050565b60006124cb82612460565b6124d5818561246b565b93506124e08361247c565b8060005b838110156125115781516124f8888261249b565b9750612503836124b3565b9250506001810190506124e4565b5085935050505092915050565b6000602082019050818103600083015261253881846124c0565b905092915050565b612549816122b5565b82525050565b60006020820190506125646000830184612540565b92915050565b600067ffffffffffffffff82169050919050565b6125878161256a565b811461259257600080fd5b50565b6000813590506125a48161257e565b92915050565b600080600080608085870312156125c4576125c361213e565b5b60006125d2878288016122d6565b94505060206125e38782880161238b565b93505060406125f487828801612595565b9250506060612605878288016122d6565b91505092959194509250565b600081519050919050565b600082825260208201905092915050565b6000819050602082019050919050565b6126468161256a565b82525050565b606082016000820151612662600085018261248c565b506020820151612675602085018261263d565b506040820151612688604085018261248c565b50505050565b600061269a838361264c565b60608301905092915050565b6000602082019050919050565b60006126be82612611565b6126c8818561261c565b93506126d38361262d565b8060005b838110156127045781516126eb888261268e565b97506126f6836126a6565b9250506001810190506126d7565b5085935050505092915050565b6000602082019050818103600083015261272b81846126b3565b905092915050565b6000806040838503121561274a5761274961213e565b5b6000612758858286016122d6565b9250506020612769858286016122d6565b9150509250929050565b61277c816121cd565b811461278757600080fd5b50565b60008135905061279981612773565b92915050565b600080604083850312156127b6576127b561213e565b5b60006127c48582860161238b565b92505060206127d58582860161278a565b9150509250929050565b600080fd5b600080fd5b7f4e487b7100000000000000000000000000000000000000000000000000000000600052604160045260246000fd5b61282182612249565b810181811067ffffffffffffffff821117156128405761283f6127e9565b5b80604052505050565b6000612853612134565b905061285f8282612818565b919050565b600067ffffffffffffffff82111561287f5761287e6127e9565b5b61288882612249565b9050602081019050919050565b82818337600083830152505050565b60006128b76128b284612864565b612849565b9050828152602081018484840111156128d3576128d26127e4565b5b6128de848285612895565b509392505050565b600082601f8301126128fb576128fa6127df565b5b813561290b8482602086016128a4565b91505092915050565b6000806000806080858703121561292e5761292d61213e565b5b600061293c8782880161238b565b945050602061294d8782880161238b565b935050604061295e878288016122d6565b925050606085013567ffffffffffffffff81111561297f5761297e612143565b5b61298b878288016128e6565b91505092959194509250565b6000806000606084860312156129b0576129af61213e565b5b60006129be868287016122d6565b93505060206129cf8682870161238b565b92505060406129e086828701612595565b9150509250925092565b60008060408385031215612a0157612a0061213e565b5b6000612a0f8582860161238b565b9250506020612a208582860161238b565b9150509250929050565b7f4e487b7100000000000000000000000000000000000000000000000000000000600052602260045260246000fd5b60006002820490506001821680612a7157607f821691505b602082108103612a8457612a83612a2a565b5b50919050565b6000606082019050612a9f600083018661234a565b612aac6020830185612540565b612ab9604083018461234a565b949350505050565b7f4e487b7100000000000000000000000000000000000000000000000000000000600052601160045260246000fd5b6000612afb826122b5565b91507fffffffffffffffffffffffffffffffffffffffffffffffffffffffffffffffff8203612b2d57612b2c612ac1565b5b600182019050919050565b7f4e487b7100000000000000000000000000000000000000000000000000000000600052603260045260246000fd5b6000819050919050565b6000612b8c612b87612b828461256a565b612b67565b6122b5565b9050919050565b612b9c81612b71565b82525050565b6000608082019050612bb76000830187612540565b612bc4602083018661234a565b612bd16040830185612540565b612bde6060830184612b93565b95945050505050565b7f796f7520686176652072656e7420746865206361720000000000000000000000600082015250565b6000612c1d60158361220e565b9150612c2882612be7565b602082019050919050565b60006020820190508181036000830152612c4c81612c10565b9050919050565b7f746865206361722069732075736564206279206f746865727320000000000000600082015250565b6000612c89601a8361220e565b9150612c9482612c53565b602082019050919050565b60006020820190508181036000830152612cb881612c7c565b9050919050565b7f796f75206172652072656e74696e6720636172206f6620796f757273656c6600600082015250565b6000612cf5601f8361220e565b9150612d0082612cbf565b602082019050919050565b60006020820190508181036000830152612d2481612ce8565b9050919050565b600081905092915050565b6000612d4182612203565b612d4b8185612d2b565b9350612d5b81856020860161221f565b80840191505092915050565b6000612d738285612d36565b9150612d7f8284612d36565b91508190509392505050565b612d948161256a565b82525050565b6000602082019050612daf6000830184612d8b565b92915050565b600081519050919050565b600082825260208201905092915050565b6000612ddc82612db5565b612de68185612dc0565b9350612df681856020860161221f565b612dff81612249565b840191505092915050565b6000608082019050612e1f600083018761234a565b612e2c602083018661234a565b612e396040830185612540565b8181036060830152612e4b8184612dd1565b905095945050505050565b600081519050612e6581612174565b92915050565b600060208284031215612e8157612e8061213e565b5b6000612e8f84828501612e56565b91505092915050565b7f4e487b7100000000000000000000000000000000000000000000000000000000600052601260045260246000fd5b6000604082019050612edc600083018561234a565b612ee96020830184612540565b939250505056fea26469706673582212209c5cae3b688eb0e283d6b16090d0ba60b826f464580876b9a820864c303089f064736f6c63430008140033",
  "linkReferences": {},
  "deployedLinkReferences": {}
}